:020000040002F8
:10600000B0D90020956402009D6402001562020070
:10601000A1640200A3640200A56402000000000065
:10602000000000000000000000000000F563020016
:10603000A96402000000000039640200AD6402009F
:106040006D6B0200AF640200C5720200156F0200A2
:10605000256F0200AF640200D9650200496D02009D
:106060004D720200657202007D720200A16C020096
:10607000AF640200796C0200AF640200AF640200FA
:10608000D5720200B56C0200B56B0200C965020052
:10609000456F02004F6F0200596F0200AF640200AB
:1060A000AF640200AF64020095720200AD7202009C
:1060B000796B0200096A0200000000000000000085
:1060C000AF6402008D6B0200A16B0200356F02000D
:1060D000356D02005D680200AF6402000000000040
:1060E00000000000000000000000000000000000B0
:1060F00000000000000000000000000000000000A0
:10610000000000000000000000000000000000008F
:10611000000000000000000000000000000000007F
:10612000000000000000000000000000000000006F
:10613000000000000000000000000000000000005F
:10614000000000000000000000000000000000004F
:10615000000000000000000000000000000000003F
:10616000000000000000000000000000000000002F
:10617000000000000000000000000000000000001F
:10618000000000000000000000000000000000000F
:1061900000000000000000000000000000000000FF
:1061A00000000000000000000000000000000000EF
:1061B00000000000000000000000000000000000DF
:1061C00000000000000000000000000000000000CF
:1061D00000000000000000000000000000000000BF
:1061E00000000000000000000000000000000000AF
:1061F000000000000000000000000000000000009F
:10620000DFF80CD000F0B0F90048004751A40200BC
:10621000B0D90020094B1EF0040F1CBFEFF309801A
:106220001847EFF308800649064A884201D8904291
:1062300002D88D464FF0000018470000F5670200B5
:10624000B0D90020B0B9002030B450E8012F93B28B
:10625000C48923448489A34228BF1B1B0489A34209
:1062600002BFBFF32F8F002007E0C3EA020340E81C
:106270000134002CE9D14FF001000A6030BC7047B6
:1062800050E8012FC2EA024240E801210029F7D17B
:10629000704730B450E8022F1FFAA2F3C488A3421B
:1062A00002BFBFF32F8F00200DE0C48923448489EF
:1062B000A34228BF1B1BC2EA034340E80234002C60
:1062C000E8D14FF001000A6030BC704750E8022F5F
:1062D000C2EA224240E802210029F7D17047034672
:1062E00053E8022FD988B2EB324F4FF0000017BFAE
:1062F00092B241EA014142EA014104E05A68B2EB3C
:10630000324F08BF012043E80212002AE8D170474B
:1063100030B4044654E8000F0D4644E80053002B07
:10632000F8D1156030BC704730B4044654E8000F13
:1063300040EA010544E80053002BF7D1156030BC5A
:10634000704730B4044654E8000F00EA010544E801
:106350000053002BF7D1156030BC704730B40446B1
:1063600054E8000F80EA010544E80053002BF7D100
:10637000156030BC704730B4044654E8000F00EBA1
:10638000010544E80053002BF7D1156030BC70477D
:1063900030B4044654E8000FA0EB010544E8005374
:1063A000002BF7D1156030BC704770B404464FF035
:1063B000000054E8006F0D68AE4207BF44E80023B8
:1063C000012044E800630E60002B1CBF0020F0E7B2
:1063D00070BC704730B4044654E8000F88422CBFAC
:1063E000451A054644E80053002BF5D1156030BC32
:1063F00070470000264B19680868B0E8F04F80F33A
:106400000988BFF36F8F4FF0000080F31188704749
:10641000000000000748006880F3088862B661B693
:10642000BFF34F8FBFF36F8F4FF4F07080F311887D
:1064300000DF000000600200EFF30980BFF36F8F00
:10644000134B1A681EF0100F08BF20ED108A20E9C8
:10645000F04F106008B44FF0400080F31188BFF394
:106460004F8FBFF36F8F09F0BFFD4FF0000080F337
:10647000118808BC19680868B0E8F04F1EF0100FCA
:1064800008BFB0EC108A80F30988BFF36F8F7047A4
:10649000F48000200648804706480047FEE7FEE7F4
:1064A000FEE7FEE7FEE7FEE7FEE7FEE7FEE7FEE7C4
:1064B000B56F0200016202000048704740140300FB
:1064C00010B5431A934209D28318881803E010F8D4
:1064D000011D03F8011D521EF9D210BD40EA01034F
:1064E0009B0703D009E008C9121F08C0042AFAD28A
:1064F00003E011F8013B00F8013B521EF9D210BD38
:10650000D2B201E000F8012B491EFBD270470022F5
:10651000F6E710B513460A4604461946FFF7F0FFA2
:10652000204610BD421C10F8011B0029FBD1801A27
:10653000704710B5002200E0521C835C8C5CA342C3
:1065400001D1002BF8D1D8B2E1B2401A10BD30B55C
:1065500004460020034600E05B1C934203D2E05C4B
:10656000CD5C401BF8D030BD064C074D06E0E0681E
:1065700040F0010394E8070098471034AC42F6D38A
:10658000FFF742FED0180300F018030030B58C1856
:1065900010F8012B12F00F0301D110F8013B120982
:1065A00006D110F8012B03E010F8015B01F8015B44
:1065B0005B1EF9D101E001F8013B521EFBD1A14263
:1065C000E6D3002030BD000010B5024908688047BE
:1065D00010BD0000808000202DE9F04F89B0002719
:1065E000002008904FF4807007900126002412E0EC
:1065F000079805F071FC40B100BF7B48006830404F
:1066000018B1079805F05AFC374376000798001D2B
:1066100080B20790641C082CEAD34FF4BE7005F0DA
:106620005BFC50B14FF4BE7005F048FC47F00047EA
:1066300008AA0121002005F027FCF8B200B30126CA
:1066400000241BE006EA0700B0B100BF674850F81D
:106650002400C0F30420804600BF644850F82400A2
:10666000C0F301408146204601F0FAFD054615B110
:1066700049464046A84700BF7600641C082CE1D379
:1066800007F0004000287DD00020069005900025EE
:1066900005E04FF0FF3004A941F825006D1C002DE6
:1066A000F7D000BF0020069000245FE05048005D56
:1066B0000390039820F0C0094D480057401C002863
:1066C00053D004A9484604F055FA00284DD0039849
:1066D0004FEA901A484601F0CBFD804601F0C0FD1C
:1066E0000290029810B9BAF1030F3DD1BAF1030F2D
:1066F00003D105A9484604F048FA00BF00BF4FF097
:10670000A041084600F5E06151F82910C1F30148A5
:1067100000BF08A9484604F02DFA8346BBF1000FDC
:1067200002D0B8F1020F05D0BBF1000F1BD1B8F1B8
:10673000030F18D1BAF1030F0FD1B8F1020F01D135
:10674000032000E0022001904846019905F076FB05
:106750000698401CC0B2069000BF029818B151467E
:106760004846029A904700BF00BF641C042C9DD38A
:10677000069888B34FF0010803AA0121002005F014
:1067800083FB00E02DE000250BE003A850F8250076
:1067900008A951F82510884202D04FF0000802E005
:1067A0006D1C002DF1D000BFB8F1000F02D0002009
:1067B000069010E000250CE003A850F8250008A979
:1067C00041F8250005A850F8250004A941F8250046
:1067D0006D1C002DF0D000BF069800287FF462AF3A
:1067E00000BF09B0BDE8F08F0463004010650040B1
:1067F00070830020044600BF064800680548001D5D
:106800000068002000E0401C1A28FCD3204600F05D
:1068100003F8000028ED00E000BF00BF00BF00BF8C
:1068200000BFBFF34F8F00BF00BF00BF0948006823
:1068300000F4E06008490843001D0649086000BFF5
:1068400000BF00BFBFF34F8F00BF00BF00BF00BF3E
:1068500000BFFDE70CED00E00000FA051CB54FF4A9
:106860008A71664805F043FBD8B14FF48A716348DA
:1068700005F044FB6248407920F008000830604988
:10688000487108464079C0F3400050B1084640794D
:10689000C0F3001028B10846407920F020002030D5
:1068A00048714FF48271554805F021FBD8B14FF47F
:1068B0008271524805F022FB5148407920F00400D3
:1068C000001D4F4948710846407900F0010050B161
:1068D00008464079C0F3001028B10846407920F0FE
:1068E0002000203048714FF48471444805F0FFFACD
:1068F000D8B14FF48471414805F000FB04213F48B2
:1069000005F003FB00BF00203E49086000BF3C4883
:106910000021026810309047394800210268083091
:10692000904701203649087166E035484079C0F348
:10693000400070B13248407900F0010048B1304861
:106940004079C0F3C00020B12D484079C0F38000E9
:10695000A0B92B48407900F0010020B928484079BF
:10696000C0F3C00050B926484079C0F34000002869
:1069700042D123484079C0F38000F8B120484079E3
:1069800020F008001E4948710846407920F00400B4
:10699000487108464079C0F3401080B108464079FC
:1069A00020F0200048710846407920F01000103097
:1069B0004871084601210268002090471CE01049F8
:1069C000D1E90401CDE900010D480246D2E90212E5
:1069D000C0E9041200200A49886000210848C1600B
:1069E000407920F010001030054948710846012117
:1069F00002686846904700BF1CBD0000005002407E
:106A00007C830020005502403EB54FF4807005F0B5
:106A10009BFA00284BD04FF4807005F09FFA504845
:106A2000847C817C012020EA01054D48001D50F83E
:106A3000250018B94A48407C022821D100208DF851
:106A400008004749C8740846407C022804D1002049
:106A50000190012048740BE04148001D50F82400CB
:106A6000019000213E48001D40F82410001F85744D
:106A700001208DF800003A480168684688470EE01A
:106A80003748C07C58B9374A07CA8DE8070001204B
:106A90003349C874084601686846884700BF3048D3
:106AA000407C022802D101202D49487446E04FF471
:106AB000827005F049FA002840D04FF4827005F04A
:106AC0004DFA00BF00202849086000BF24494874DF
:106AD0008DF808008DF800000846817C001D50F8F4
:106AE000210078B11E48817C001D50F821000190E2
:106AF00000211B48827C001D40F82210001F016805
:106B0000684688471648817C012020EA0104144821
:106B1000001D50F8240068B11148001D50F82400F1
:106B2000019000210E48001D40F82410001F01684C
:106B30006846884700200A49887400BF0848007DDD
:106B400060B1084A0C3207CA8DE8070000200449EA
:106B50000875084601686846884700BF3EBD0000CA
:106B600094830020240F030000D5014010B505F0E8
:106B700099FE05F08BFD10BD10B50249024803F0E7
:106B8000C8F910BDAC83002000C0014010B5024917
:106B9000024803F0BEF910BDB4830020001002408B
:106BA00010B50249024803F0B4F910BDBC830020BF
:106BB000002002401CB500BF4FF480702B494058A4
:106BC000B0B1012005F00CFA90B14FF4807005F0DF
:106BD000FBF94FF48070ADF8000000BF2448006856
:106BE00040B28DF80200234ADDE9000112689047A7
:106BF00000BF4FF482701D494058F0B1022005F0EB
:106C0000EFF9D0B14FF4827005F0DEF94FF48270E5
:106C1000ADF8000000BF16480C30006800B2ADF8B7
:106C2000020000BF12483C30006881B2ADF8041089
:106C3000104ADDE900011268904700BF4FF48470EC
:106C40000A49405880B1042005F0CAF960B14FF4F8
:106C5000847005F0B9F94FF48470ADF80000054A6E
:106C6000DDE90001126890471CBD000000200140D2
:106C70000C2501409080002010B54FF4807005F085
:106C8000C9FA00BF04480068C0B204462046034960
:106C90000968884710BD000008D500409C8000208E
:106CA00010B503220021024803F086F910BD000050
:106CB00000B000402DE9F0414FF4A0711A4805F0F2
:106CC000C2FA002400BF00BFEFF311800546402048
:106CD00000F060FB00BF2E4600BF14480068074666
:106CE0004FF48071104805F0AEFA09F0F9FE381A39
:106CF00020F07F45012D04D909F0E2FE022800D0E2
:106D0000012502E009F0F8FE0443281EA5F1010563
:106D1000F8D124B14FF080500549086040BF30469B
:106D200000F038FBBDE8F08100100140041501407F
:106D300004ED00E010B504220121024803F03CF903
:106D400010BD000000400240FEB54FF4827005F017
:106D5000A1FA002837D04FF4827005F0A5FA6C48EC
:106D600090F82E0018B16A4890F82F0058B3002010
:106D70008DF8000066484068019065480189ADF8CB
:106D80000810C06818B900206149087412E0604812
:106D9000008B5F4948830846C06848600846008BFE
:106DA00008810020C860084690F82E0010B9002025
:106DB00005F086FA5648016868468847002054491D
:106DC00081F82F0000BF524890F82E00002852D0C2
:106DD0004FF4807005F05EFA00284CD04FF48070BC
:106DE00005F062FA4A48408B494991F82D108842D3
:106DF00016DD4748408B464991F82D10401A44490A
:106E000048830A4612890B465B8BD21A0B465B6895
:106E100003EB42000A4692F82D1005F033FA23E006
:106E20003B48408B3A4991F82D1088420FD13848A1
:106E3000C06860B10120364981F82F0000204883E6
:106E40000A4692F82D10D06805F01CFA0CE0304884
:106E5000408B2F4991F82D10884205D101202C49F3
:106E600081F82F00002048834FF4827005F01CFA4F
:106E7000042005F025FA4FF4887005F00BFA70B184
:106E80004FF4887005F010FA0020214908740220A0
:106E90008DF80000084601686846884700BF4FF437
:106EA0008A7005F0F7F938B14FF48A7005F0FCF9F3
:106EB0000020174908742AE01548456924E0B5FA0E
:106EC00085F64FF00040F0408543B00000F58C742B
:106ED000204605F0DFF9B8B1204605F0E5F90120BC
:106EE0008DF80000A4F58C70C0F3C7008DF8040085
:106EF000A4F58C70012121EA90018DF80510044859
:106F000001686846884700BF002DD8D100BFFEBD8C
:106F1000C483002010B502490868804710BD0000F6
:106F20006880002010B502490868804710BD000045
:106F30007080002010B502490868804710BD00002D
:106F40007880002010B5002008F08EFA10BD10B532
:106F5000012008F089FA10BD08B5002000906946AC
:106F60000E48006808F08EFF0098B0B100BF4FF0E7
:106F700080500B49086040BF00BF00BF00BFBFF397
:106F80004F8F00BF00BF00BF00BF00BF00BFBFF3F7
:106F90006F8F00BF00BF00BF00BF08BD648100202D
:106FA00004ED00E001480249086070470090D003FA
:106FB0000080002010B501F01DFD28B19248008826
:106FC000C0F304209149086001F068FD10B19048B9
:106FD0009049486701F08AFD30B18B48E03800687D
:106FE000C0F342308C49086001F0AAFD28B18B48FB
:106FF000006820F080708949086001F0B9FD48B14F
:107000000020874908604FF08041C1F81001824993
:10701000091F086001F0D6FD18B103207E496431D4
:10702000086001F0E7FD68B105207E490860012095
:107030007C497831086000207A49083108603F2097
:10704000091F086001F0EEFD002855D06E48E030C1
:107050000068754908606C48E4300068091D0860E4
:107060006948E8300068091D08606748EC3000682E
:10707000091D08606448F0300068091D0860624816
:10708000F4300068091D08605F48F8300068664900
:10709000203108605C48FC300068091D08606348C6
:1070A0000068091D08606148001D0068091D08602E
:1070B0005E4808300068091D08605C480C300068B4
:1070C000091D086059481030006857494031086070
:1070D000564814300068091D08605448183000688C
:1070E000091D086051481C300068091D08604F48A0
:1070F00020300068091D086001F052FC30B14248A0
:10710000CC38006800F04F004949086001F09CFC51
:1071100040B14848006800F0010018B16FF001006C
:107120004449086001F0D2FC28B14348006840F4AB
:1071300080604149086039487438006840F4700044
:1071400036497439086000BF00BF00BFBFF34F8FDE
:1071500000BF00BF00BF00BF00BF00BFBFF36F8F05
:1071600000BF00BF00BF3548006800F0004028B9EC
:107170003248001D006800F00040E8B301203049AB
:10718000086000BF2F4800680028FBD015202B495D
:10719000086000BF2B4800680028FBD01521274855
:1071A000001D016000BF274800680028FBD00020B8
:1071B0002349086000BF234800680028FBD000BFB7
:1071C00000BF00BF00BF00BFBFF34F8F00BF00BFB5
:1071D00000BF1248F038006800F4E0601A49084324
:1071E000001D0E49F039086000BF00BF00BFBFF3AB
:1071F0004F8F00BF00BF00E003E000BF00BF00BF33
:10720000FDE7FFF7CFFE10BD24030010403501401D
:107210000DF0ADBA00C007403C050040FCED00E0B9
:107220000C0100401056004020C50040240400100E
:10723000E40E0040000400403C1700400012001023
:1072400004E5014000E401400000FA0510B5042205
:107250000249034802F00CFF10BD00001884002012
:107260000080004010B504220249034802F000FFEC
:1072700010BD0000248400200090004010B50422BE
:107280000249034802F0F4FE10BD000030840020E3
:1072900000A0004010B506220249034802F0E8FEB3
:1072A00010BD00003C84002000A0014010B5062263
:1072B0000249034802F0DCFE10BD000048840020B3
:1072C00000B0014010B502490868804710BD0000B9
:1072D0008880002008B500BF4FF480700B494058EB
:1072E00008B1012000E0002078B10948006880471B
:1072F00000BF00204FF48071044A885008461146B0
:107300004058009000BF00BF00BF08BD0000014012
:10731000B480002002E008C8121F08C1002AFAD178
:1073200070477047002001E001C1121F002AFBD105
:10733000704700000146202908DA012088400A4AE7
:10734000104008B1012070470020FCE7402909DA0D
:10735000A1F12000012202FA00F008B10120F2E7B9
:107360000020F0E70120EEE7FC06FFBD00BFEFF3D1
:107370001081084672B6704700BFEFF310810846CF
:1073800072B67047C1B281F311887047C1B281F300
:1073900011887047C1B281F311887047C1B281F37F
:1073A0001188704770B505460C4605B10CB9002030
:1073B00070BD287840082178B0EB510F01D0002033
:1073C000F6E70622611C681CFFF7C1F808B9012026
:1073D000EEE70020ECE7014601F0030008B90120C8
:1073E00070470020FCE7024650680068401E0840D5
:1073F00008B9012070470020FCE710B50346D868A3
:10740000884206D88818401E1C69A04201D8012075
:1074100010BD0020FCE7000010B504466CB1084820
:10742000C068A04209D806480069A04205D320469A
:1074300002F0A2FE08B1012010BD0020FCE7000010
:10744000F48100202DE9F04106460C4604F12207A4
:10745000292010F8048000250BE0C5EBC500C119F8
:10746000304601F0D0FD10B10120BDE8F081681C6C
:10747000C5B24545F1DB0020F7E72DE9F0470446AA
:107480000D462F4695F82080B4F81C9000260BE09E
:1074900007EB46124946A06900F094FB10B10120A9
:1074A000BDE8F087701CC6B24645F1DB0020F7E767
:1074B0002DE9F05F06460C4604F12C0A94F8325090
:1074C000302010F804904FF00008B6F81CB00027E8
:1074D00010E00AEB87025946B06900F0D5FB28B1ED
:1074E00008F1010000F0FF0815B905E005B103E05F
:1074F000781CC7B24F45ECDB00BF0DB1C84503D0C7
:107500002DB9B8F1000F02DD0120BDE8F09F002089
:10751000FBE7000070B592B004265920ADF80000DA
:10752000264902911820ADF804003C2103A8FEF77B
:10753000EEFF00208DF80C008DF80F60CDF830D0F4
:1075400018211F48FEF7E3FF05201D4908700020A1
:107550004860087540208860002088811948021D15
:10756000016803A800F078FA044600BF254625B15B
:1075700000BF284600F0A2F800BF00BF104A114922
:10758000114872DF044600BF254625B100BF2846DA
:1075900000F094F800BF00BF6FF013020A480178B2
:1075A000012077DF044600BF254625B100BF2846ED
:1075B00000F084F800BF00BF12B070BD248000202E
:1075C00008820020148000201080002070B506463C
:1075D00001210748007873DF044600BF254625B126
:1075E00000BF284600F06AF800BF00BF70BD000071
:1075F0001080002070B58CB004460D461646002061
:1076000005E0C0F10F01615C0DF80010401C10286E
:10761000F7D30D2104A8FEF77AFF002005E02A5CCD
:10762000C0F10F0304A9CA54401C0328F7D36846CD
:1076300046DF002005E0C0F10F0208A9895C315443
:10764000401C0328F7D30CB070BD000010B50446F1
:1076500002480178204600F0EFFB10BDBF810020FA
:1076600072B600BF1348006800F0010000B100BE10
:1076700000BF00BF00BF00BF00BF00BFBFF34F8F00
:1076800000BF00BF00BF0B48E438006800F4E060B2
:1076900009490843001D0749E439086000BF00BFDD
:1076A00000BFBFF34F8F00BF00BF00BF00BF00BFD0
:1076B000FDE70000F0ED00E00000FA053EB50446ED
:1076C000002000900190029002946A46002144F24A
:1076D0000100FFF7C5FF3EBD2DE9FC4705460E46FC
:1076E00017462C46D4F80480B8F1000F02D10820C8
:1076F000BDE8FC87207B002801D00020F8E7276048
:1077000000BFEFF30580A8B30020019001AB324623
:1077100009210090404609F097FB012801D0042080
:10772000E6E709F0E3F98146002001AB4A4606216D
:107730000090404609F088FB012801D00420D7E7DB
:107740000198B0B100BF4FF080501D49086040BFA4
:1077500000BF00BF00BFBFF34F8F00BF00BF00BF1F
:1077600000BF00BF00BFBFF36F8F00BF00BF00BFEF
:1077700000BF21E0FFE7404609F09CFB08B1002074
:10778000B6E702200023324604210090404609F06B
:107790005BFB012801D00420AAE709F0A1F981468A
:1077A000022000234A4601210090404609F04CFB8C
:1077B000012801D004209BE701202073002097E7D7
:1077C00004ED00E07CB5044625466E68002E01D12C
:1077D00008207CBD00BFEFF3058030B3002001908E
:1077E00001AB024608210090304609F02DFB01282C
:1077F00001D00420EDE70198B0B100BF4FF08050F8
:107800001249086040BF00BF00BF00BFBFF34F8FE9
:1078100000BF00BF00BF00BF00BF00BFBFF36F8F3E
:1078200000BF00BF00BF00BF0BE0022000231A46CC
:1078300003210090304609F007FB012801D0042005
:10784000C7E70020287300BFC3E7000004ED00E095
:1078500010B50446204607F007F810BD70B5044681
:1078600025460E488068B0B1ADB9FFF77FFD0646EA
:107870000A4800680A490860084840684FF0E0215B
:10788000C1F804010020054988601EB900BF62B636
:1078900000BF00BF00BF00BF70BD000054840020C7
:1078A00000E100E0F8B505460C4617462088001DAB
:1078B000B84201D90C20F8BD684679DF064600BF02
:1078C000304600B1F7E700BF0320218868542088C4
:1078D000401C20801920218868542088401C20806A
:1078E00020884119BDF8000007F04AFF21880844AC
:1078F00020800020DFE770B504460D46204602F0E8
:1079000029FD70BD10B50446637903F003022179A7
:10791000208802F0D7FC10BD10B50446207918B9B4
:10792000204600F007F803E02046FFF7EBFF00BF1A
:1079300000BF10BD2DE9FC41064637884FF0000816
:10794000002244480178384600F08CFA7079C0F380
:10795000800028B90021304605F0BEF9BDE8FC8161
:1079600007F5807188B26B460122072105F062FAA3
:10797000054645B12946384607F002FA002130464F
:1079800005F0AAF9EAE7384602F080F904464FF616
:10799000FF718C421BD1019802F0C8F804464FF6E3
:1079A000FF70844213D02146384602F04DF9384624
:1079B000FFF74CFE58B9384607F076F93846FFF71E
:1079C00045FE20B90021304605F086F9C6E74FF69E
:1079D000FF70844215D105F0BBFB04464FF6FF70E3
:1079E000844208D10421384607F0CAF90021304604
:1079F00005F072F9B2E72146384602F025F94FF05A
:107A0000010807F5807188B22246072105F088FA3F
:107A1000054625B90121304605F05EF917E0862DAF
:107A200007D1384607F072F90121304605F054F9C4
:107A30000DE02946384607F0A3F90021304605F04D
:107A40004BF9B8F1000F02D0204602F007F900BF51
:107A500084E70000BC8100202DE9FC4105468846F2
:107A60001646002437880020308095F82D0058B144
:107A70003A463146404600F019FA044600BF204617
:107A800008B1BDE8FC8100BFA87850B13A46314644
:107A90004046FFF707FF044600BF204600B1F0E76D
:107AA00000BFE87860B1E97848B23B4632464146CB
:107AB00001F0CBFA044600BF204600B1E1E700BF69
:107AC000686868B1696891F900003B4632464146F2
:107AD00007F035FE044600BF204600B1D1E700BFE5
:107AE000288900280EDD43460622022105F1080000
:107AF000CDE9006707F028FF044600BF204600B12B
:107B0000BFE700BF288A00280EDD43460722032175
:107B100005F11000CDE9006707F016FF044600BF2D
:107B2000204600B1ADE700BF288B00280EDD43469C
:107B30001522142105F11800CDE9006707F004FFB4
:107B4000044600BF204600B19BE700BF286A58B139
:107B50003B4632464146286A00F0E9FC044600BF35
:107B6000204600B18DE700BF686A58B13B463246F7
:107B70004146686A02F016FD044600BF204600B187
:107B80007FE700BF95F82C0000280BDD3B4632460E
:107B90004146284607F00AFA044600BF204600B1D5
:107BA0006FE700BF287858B13B4632464146284629
:107BB00002F0CBFD044600BF204600B161E700BFE4
:107BC00020465EE72DE9F843064688461546002024
:107BD00000900DB9BDE8F88309236A464146304656
:107BE00000F02BF80446BDF800003718BDF800007F
:107BF00068B164B12846FEF795FCA04207D1224641
:107C000039462846FEF7A3FC08B90120E2E7002028
:107C1000E0E7F8B504460E461546002000902B46D6
:107C20006A463146204600F008F807460FB90020A2
:107C3000F8BDBDF800002044FAE7F0B504460D4653
:107C400004B10AB90020F0BD002103E0605C401CD3
:107C5000084481B21088884203DC481C205C9842AA
:107C600001D0A942F2DBA94201DB0020EBE7881C2E
:107C700086B2605C401E87B2F019A84201DD002088
:107C8000E1E716803846DEE72DE9F04788B0044684
:107C90000E4617460020079010200690B24602AA12
:107CA00006A9384664DF814614B1B9F1000F03D04C
:107CB000002008B0BDE8F0879DF81800022804D025
:107CC000042809D0102815D10DE003208DF80400F8
:107CD00002208DF805000FE005208DF80400042037
:107CE0008DF8050008E007208DF8040006208DF8C7
:107CF000050001E00020DCE700BF002509E001A845
:107D0000435D07AA31462046FFF797FF8246681C6D
:107D1000C5B2022D03DABDF81C000028EFD0BDF873
:107D20001C0008B90020C4E7BDF81C0004EB0008E3
:107D300000250DE008EB05009DF8182002A9FEF7CC
:107D400006FC08B90120B4E79DF81800284485B264
:107D50005545EFDB0020ACE710B50446204600F0A7
:107D600097F820B12146034802F025FE10BD0020FF
:107D7000FCE700005CB6002070B504460D461646D0
:107D8000204607F0D7FD08B9002070BD034951F81F
:107D900024003246294601F099F9F6E768B600203A
:107DA00010B50446204600F073F820B12146034880
:107DB00002F001FE10BD0020FCE7000064B60020C8
:107DC00010B50446204600F063F820B12146034870
:107DD00002F0F1FD10BD0020FCE7000060B60020BD
:107DE00070B504460025204600F052F850B12146F7
:107DF000054802F0E0FD06460EB1022000E0012039
:107E0000054600BF284670BD58B6002070B5044630
:107E10000025204600F03CF850B12146054802F00C
:107E2000CAFD06460EB1022000E00120054600BF53
:107E3000284670BD54B6002070B505460C46204655
:107E400007F078FD50B1284600F022F830B104491F
:107E500001EB8400294602F0AEFD70BD0020FCE776
:107E600068B6002070B505460C461646204607F059
:107E700061FD50B1284600F00BF830B1034901EB29
:107E800084003246294601F0D1F870BD68B6002062
:107E900010B50446142C01DB002010BD2146024819
:107EA00002F089FDF9E7000050B600202DE9FC4101
:107EB00005460C46174620880930B84202D90C20E6
:107EC000BDE8FC8168466DDF064600BF304600B164
:107ED000F6E700BF0820218868542088401C2080D5
:107EE0001B20218868542088401C2080208828443A
:107EF000DDF801100160BDF8051081802088801D2B
:107F000020809DF80000400818B90020218868549E
:107F100002E00120218868542088401C2080002035
:107F2000CEE700002DE9FE430546894605F1040829
:107F300028881B284FD01D2851D108F1040606F1CE
:107F40001807B988FF223868FFF763FE0446ECB3D0
:107F5000207901283ED1607912283BD1A0792328CD
:107F600038D1E079342835D1207A452832D1607A69
:107F700056282FD1A07A67282CD1E07A782829D1E9
:107F8000207B892826D1607B9A2823D1A07BAB282F
:107F900020D1E07BBC281DD1207CCD281AD1607C6B
:107FA000DE2817D1A07CEF2814D1E07CF02811D175
:107FB00000208DF8000096F913000190607E029079
:107FC00000231A4669460848006800E002E008F00D
:107FD00087FB00BF04E0002006F0D8FB00E000BFF4
:107FE00000BFBDE8FE8300000480002070B5044699
:107FF0000D462088102806D0112808D012280ED04F
:10800000502810D107E0204604F046FD0CE0204641
:1080100004F07AFD08E0204604F090FD04E02046DC
:1080200004F022FD00E000BF00BF70BD2DE9F0416B
:1080300004460F46A6882088102806D0112817D09D
:1080400019283DD01A2848D116E006F017FB304613
:1080500006F098F920B900BF0420FFF72FFB06E0D7
:10806000E07B012803D031461D4802F0B3FC34E028
:10807000304606F027FB30E0207A0509042D01DBAD
:10808000012000E000200246314615480C3000F087
:10809000CDFF032D01DB012000E000200246314628
:1080A0000F48083000F0C2FF022D01DB012000E084
:1080B0000020024631460A48001D00F0B7FF0CE0E0
:1080C000207A48B9607AC0F3C0052A463146044890
:1080D0000C3000F0ABFF00BF00BF00BFBDE8F08177
:1080E00058B6002070B504460D4600BF074800781A
:1080F00000B970BD00BF204601F082FC204606F0AA
:10810000A1FF204601F016FA00BFF2E7AC81002083
:1081100070B50446204607F02DFB054605F001002A
:1081200070BD38B504F07AF9044600BF254625B184
:1081300000BF2846FFF7C2FA00BF00BF0020009032
:108140006946012004F0CEF8044600BF254625B15B
:1081500000BF2846FFF7B2FA00BF00BF684604F030
:1081600013F9044600BF254625B100BF2846FFF796
:10817000A5FA00BF00BF012032DF044600BF25463C
:1081800025B100BF2846FFF799FA00BF00BF0120C4
:108190003FDF044600BF254625B100BF2846FFF754
:1081A0008DFA00BF00BF38BD70B504460D460A2DDC
:1081B00003D10D212046FFF7F7FFA168481CA060FE
:1081C00020684554D4E90110884202D3204603F0C8
:1081D00094FC70BD7CB50446204601F057FD054671
:1081E00000236A46092104F019FF052805D1012260
:1081F000024801782046FFF735FE7CBD88810020CB
:108200007CB504460E460020019042F6A620ADF84B
:10821000040001208DF806000748006800906A46B7
:1082200001A92046A0DF05462DB9012203480178A7
:108230002046FFF717FE7CBDD01203008981002085
:1082400001468879012809D10879012806D1488892
:1082500042F60212904201D1012070470020FCE753
:108260000146024850F8210070470000208300209A
:108270000146014840567047508300202DE9F041E7
:1082800004460D464FF6FF76304684420AD14FF43D
:108290008071284602F05FFB86B2B6F5807F10D170
:1082A00026460EE0FF2C0CDC2146284602F03CFB63
:1082B00080F001070FB1204601E04FF6FF7006463F
:1082C00000BF3046BDE8F08101468868D0F848011B
:1082D000C0F3C0007047000070B504460D462A4642
:1082E00002A1206903F0F4FB70BD000025630000CB
:1082F0002DE9F04104460D4616461F4660680168A8
:108300003B463246D1F810C02946E0478046BDE8DA
:10831000F08110B504460CB9002010BD2046FEF7D0
:1083200001F9FAE72DE9F84304460F4615461E46C3
:108330004FF0000824E007EB0801606802686B4614
:10834000D2F80CC02A46E047814600988044009845
:108350002D1A009898B9A068007803280FD000BFA4
:10836000A068D0F84801C0F340100028F8D0A068F9
:10837000D0F8480120F02000A168C1F8480100BFF2
:10838000002DD8D10EB100983060BDE8F883000010
:1083900070B505460DB9094C01E0084C083409E0F8
:1083A000204601F0F1FE064606B904E02846716851
:1083B000884700BFF4E700BF70BD0000C482002002
:1083C00010B504462CB90120064948700020FFF77B
:1083D000DFFF012C04D1012002498870FFF7D8FF8C
:1083E00010BD0000BC8200202DE9F05F05468946E3
:1083F00016461C460A9FB9F1000F27D1234824498D
:10840000401AB6EBD00F1ED24FF0000ADFF884B04E
:10841000D04611E01E4800EBC80ADAF804205BF8E9
:1084200026001168FEF785F820B9DAF8040020600C
:10843000BDE8F09F08F1010814481549401AB8EB4F
:10844000D00FE7D300BF00202060F1E715B900206E
:108450002060EDE7287850B1394630466A68904789
:10846000386810B9002020600DE027600BE06868D4
:1084700000EB0610006820B1686800EB0610206071
:1084800001E00020206000BFD2E7000028190300AF
:10849000F0180300D881002033B58BB005460020CA
:1084A00000900C9878B100240BE021460CA802F053
:1084B00082FA28B1009A501C009001A820F81240BE
:1084C000641C142CF1D32C2269462846FDF7F8FFD2
:1084D0000DB030BD01460888062808DB0888B0F5D5
:1084E000486F06DD08884FF6FF72904201D00720E2
:1084F00070474888062808DB4888B0F5486F06DDD5
:1085000048884FF6FF72904201D00720F0E70888B4
:108510004FF6FF72904208D04888904205D00888F4
:108520004A88904201DD0720E2E70020E0E72DE9DC
:10853000F04107460D46144698462088801D404568
:1085400002D90C20BDE8F0813846FFF7C3FF06468C
:1085500000BF304600B1F5E700BF05202188685410
:108560002088401C20801220218868542088401CCC
:10857000208022885119388807F002F921880844A0
:10858000208022885119788807F0FAF82188084459
:1085900020800020D6E70000F8B505460C46607A3A
:1085A00088B9207A10B91048476801E00E488768FA
:1085B0002A4639466068FFF78FF8064616B13046FE
:1085C00006F084FB0EE0002020720748406948B1A5
:1085D00001208DF80000ADF802500348416968465B
:1085E000884700BFF8BD000030B60020F0B585B068
:1085F00004460D4617461E4614220B496846FDF7F1
:108600005FFFADF802408DF80850ADF80A708DF8A4
:108610000C600022054801782046FFF723FC6846DD
:1086200000F0EAFB05B0F0BD80130300BC81002020
:1086300010B586B00446208804F01AFB00BB2088E1
:10864000FFF78AFB30B92088012241F2060100F0D1
:108650009BF915E0208800220A490978FFF702FCFF
:1086600002208DF804002088ADF8060000208DF867
:108670000C0000218DF80D1001A800F0BDFB00BF1B
:1086800006B010BDBC81002070B505460C46002C1C
:1086900004DD224602A1286903F01AFA70BD000029
:1086A0001B5B25644200000070B505460C46002C9B
:1086B00004DD224602A1286903F00AFA70BD000019
:1086C0001B5B25644400000010B5044602A120692C
:1086D00003F0FEF910BD00000A0000002DE9FC5F68
:1086E000044600260027002000900025A16801F123
:1086F000A0008021FDF70BFF5249206903F0E8F943
:10870000204607F016F8A94696E000BF01AB01220B
:1087100069462046FFF7ECFD019868B940F2E7385A
:10872000B8F1000F00D106E0DFF81CA14FEA881B6A
:108730005846D04700BF77E09DF800001B2805D0C1
:10874000A06890F8A0001B2800D06DE09DF8000004
:10875000522858D10021A068A0304155A06890F857
:10876000A1005B2806D00020A16881F8A0000B20A2
:10877000BDE8FC9F02250FE0A068A03029466A1CD6
:10878000D5B2405C303807EB870100EB410087B27F
:10879000802D01DB0C20EBE7A068A030405D3B287A
:1087A000EAD1681CC0B20546802801DB0C20DFE757
:1087B0000FE0A068A03029466A1CD5B2405C303872
:1087C00006EB860100EB410086B2802D01DB0C2018
:1087D000CEE7A068A030405D0028EAD1FA2E03D988
:1087E000FA20A168087501E0A1680E75FA2F03D977
:1087F000FA21A068817501E0A06887750020A16852
:1088000081F8A000B4E79DF80010A068A0304155A1
:10881000681CC0B20546092805D90020A16881F866
:10882000A0000420A4E700BF019800287FF46EAFE9
:1088300009F101001FFA80F9B9F57A7FFFF665AFFB
:108840000D2095E7301103002111030070B5054696
:108850000C46002C04DD224602A1286903F038F9F9
:1088600070BD00001B5B25644300000070B5054629
:108870000C46002C04DD224602A1286903F028F9E9
:1088800070BD00001B5B2564410000002DE9F04134
:1088900005460F460F4C0121204602F0D6F8064649
:1088A00000BF00BF00BF00BFBFF35F8F00BF00BFAE
:1088B00000BF0EB9012000E0002040B1284601F0C1
:1088C00095FD08B1BDE8F081024803F032FB00BF1E
:1088D000F8E700008081002070B506460D4616B10D
:1088E0004FF4064070BD287920B1012809D0022834
:1088F00015D111E002202871284605F0A1FD04469B
:1089000010E0284600F060FB044648F2096084420B
:1089100001D141F61D5405E041F61D5402E048F234
:108920000E6400BF00BF2046DCE770B50446207926
:108930003D2802D141F23D0001E04FF48850054648
:1089400020880022294601F0BDFC70BD01210120D4
:10895000094A12680AB100200CE0084A12680AB1FC
:10896000002007E0064A1368064A1268521E934226
:1089700000D1022070470000989500201881002047
:10898000C09500200481002070B506460C461546AF
:108990002B46224600213046FFF728FE70BD00001E
:1089A00013480078062820D11148001D007800F0F7
:1089B0000F00D0B90E480830007800F0F0003028E1
:1089C00001D1012070470A480830007800F0F0001B
:1089D000402801D10120F5E705480830007800F073
:1089E000F000502801D10120ECE70020EAE7000068
:1089F000E00F00F013480078062820D11148001D30
:108A0000007800F00F00D0B90E480830007800F070
:108A1000F000302801D1012070470A480830007862
:108A200000F0F000402801D10120F5E705480830AA
:108A3000007800F0F000502801D10120ECE7002080
:108A4000EAE70000E00F00F013480078062820D184
:108A50001148001D007800F00F00D0B90E48083012
:108A6000007800F0F000302801D1012070470A485A
:108A70000830007800F0F000402801D10120F5E72F
:108A800005480830007800F0F000502801D101209E
:108A9000ECE70020EAE70000E00F00F00A48007869
:108AA00006280ED10848001D007800F00F0040B9DC
:108AB00005480830007800F0F000302801D101208E
:108AC00070470020FCE70000E00F00F00648006857
:108AD000062806D10448001D0068062801D101209F
:108AE00070470020FCE700003001001013480078B8
:108AF000062820D11148001D007800F00F00D0B9E1
:108B00000E480830007800F0F000302801D1012034
:108B100070470A480830007800F0F000402801D182
:108B20000120F5E705480830007800F0F0005028F3
:108B300001D10120ECE70020EAE70000E00F00F09F
:108B40000A48007806280ED10848001D007800F079
:108B50000F0040B905480830007800F0F0003028D8
:108B600001D1012070470020FCE70000E00F00F079
:108B700013480078062820D11148001D007800F025
:108B80000F00D0B90E480830007800F0F00030280F
:108B900001D1012070470A480830007800F0F00049
:108BA000402801D10120F5E705480830007800F0A1
:108BB000F000502801D10120ECE70020EAE7000096
:108BC000E00F00F00A48007806280ED10848001D82
:108BD000007800F00F0040B905480830007800F038
:108BE000F000302801D1012070470020FCE7000090
:108BF000E00F00F00A48007806280ED10848001D52
:108C0000007800F00F0040B905480830007800F007
:108C1000F000302801D1012070470020FCE700005F
:108C2000E00F00F00A48007806280ED10848001D21
:108C3000007800F00F0040B905480830007800F0D7
:108C4000F000502801D1012070470020FCE700000F
:108C5000E00F00F00278072A38D2DFE802F037048C
:108C60000712222B340000220A7030E001220A7021
:108C700003898B818388CB81C2688A6000230B744F
:108C800025E002220A7003898B818388CB81C26828
:108C90008A60827D062A01D1012300E000230B7443
:108CA00015E003220A70C3888B810389CB81C268D7
:108CB0008A600CE004220A70C3888B810023CB8178
:108CC00000228A6003E005220A7000E000BF00BFB6
:108CD0007047000070B50546002409E0064850F8CA
:108CE000240020B1044850F8241028468847641C0A
:108CF000042CF3D370BD00006084002070B586B0F2
:108D000006460C4615461CB3112C21D0082C1FD04A
:108D10000D2C19D13246032101A801F08BFD2DB194
:108D2000287800F0010008B1012000E002208DF851
:108D30000C0000218DF8101041F20111ADF80E1059
:108D400001A800F06DF803E02146304606F02CF84B
:108D500006B070BD10B50446204600F061F810BDA5
:108D600070B50446608800F091FFA080002505E002
:108D7000044850F82510204688476D1C002DF7D078
:108D800070BD00007881002070B50446A08800F016
:108D9000ADFE6080002505E0044850F8251020460F
:108DA00088476D1C002DF7D070BD00008C8100201D
:108DB00070B50546002405E0044850F82410284604
:108DC0008847641C022CF7D370BD00001013030009
:108DD00070B50546002405E0054850F824102846E3
:108DE0008847641C034800788442F5DB70BD0000AE
:108DF00020B90020BA81002070B50446608800F0D8
:108E000045FFA080002505E0044850F825102046C5
:108E100088476D1C002DF7D070BD00004013030083
:108E200070B50546002405E0044850F82410284693
:108E30008847641C002CF7D070BD0000B8130300F5
:108E400038B505461048007810B948F2016038BDC1
:108E50004FF6FF70854202D148F20360F7E768469B
:108E600005F07CF9044614B948F20760EFE70520E5
:108E7000207001202071E580684605F07FF905F03B
:108E800009FA0020E3E70000B880002038B5044666
:108E900014B948F2046038BD6946204605F0EEFA80
:108EA00008B3BDF8000000EB8000114901EB800021
:108EB000C068A8B1A07A98B1BDF8000000EB8000AE
:108EC00001EB8000C068401EBDF8001001EB81017D
:108ED000074A02EB8101C8600020A072002504E06F
:108EE00048F2056501E048F209652846D3E700002D
:108EF0000C8500207FB514461D462B46224601A94D
:108F0000684605F053FA04B070BD37B50C461546F7
:108F10002B4622466946002005F048FA3EBD37B58B
:108F20000C4615462B4622460021684605F03EFABF
:108F30003EBD024602B111B948F2046070471068A4
:108F400008600020FAE70000F8B504460D4604B1B9
:108F500015B948F20460F8BD6946204605F08EFA5E
:108F6000A0B16668BDF8001001EB8101094A02EB6F
:108F7000810101F10C00012101F03BFD2E606068D0
:108F80000C3068600120A0720020E4E748F209601C
:108F9000E1E700000C85002070B504460D4614B9C9
:108FA00048F2046070BD032300222946204607F0E2
:108FB000D1F9F7E770B504460D4602230022294691
:108FC000204607F0C7F970BD3EB504460A4B6A4615
:108FD0000021A01D05F0EAF9054635B9064A918839
:108FE000019805F0C5FA054603E003480021016039
:108FF000416028463EBD0000D48000200146A1F516
:10900000404080B2704770B504460D46287840084D
:10901000A178B0EB510F07D10622E11C681CFDF7C7
:1090200096FA08B9012070BD0020FCE770B505462E
:109030000E46144624B13146284601F0CBFC03E02D
:109040003146284601F061FC70BD30B504461088F9
:10905000C01C984201D90C2030BD0220158848550B
:109060001088401C10800120158848551088401C2D
:10907000108015884C551088401C10800020EBE7AC
:109080002DE9F04106460C4615460027112C01D16A
:10909000012700E0002765B13A460A4801783046CA
:1090A000FEF7E0FE0022084801783046FEF7DAFEBF
:1090B00005E03A46044801783046FEF7D3FEBDE8A5
:1090C000F0810000D7810020D4810020F7B50D4643
:1090D00017460DB90020FEBD0026009868B1002497
:1090E00009E02146684601F066FC18B1A0B2394695
:1090F000A847761C641C142CF3D33046EBE72DE90B
:10910000F04780460D4617469A460DB9BDE8F087F0
:10911000BAF1000F03D0F9B24046FFF797FB0024E5
:1091200000E0641CFDF7C8F90068295D405C00F0B0
:1091300001000028F5D16AE000262846FFF7E9F88B
:10914000A0EB0409D8F80800407EC01B484522D394
:1091500000BF17E02819805D0A2812D1404606F0AA
:10916000E8FA2919002332464046FFF7DBF8701C65
:1091700004444046FFF7A8FAF9B24046FFF766FB01
:1091800002E0761C4E45E5D300BF2919D8F810003F
:1091900002F09EFC3CE0D8F80800407EA0EB0709F6
:1091A00016E0FDF789F900682919895D405C00F037
:1091B000010028B1B1462819805D0A2800D108E0D5
:1091C000F119D8F80800407E814200D301E0761CF6
:1091D000E7E700BF404606F0ACFA291900234A46EB
:1091E0004046FFF79FF84C4400E0641CFDF764F92B
:1091F0000068295D405C00F001000028F5D1404680
:10920000FFF762FAF9B24046FFF720FB00BF93E791
:1092100000BF4046FFF758FA00BF77E710B5044695
:10922000606804F0D5FF10BD70B5054615B14FF468
:10923000064070BD1848007B18B10020164908731D
:1092400001E000F0DFF81448007808281DD2DFE8BC
:1092500000F01C04080C101C141800F03FF8044621
:1092600016E000F0BDF8044612E000F099F804465C
:109270000EE000F047F804460AE000F02DF904463D
:1092800006E000F03BF9044602E048F20E6400BF3D
:1092900000BF2046CDE70000348500200D4800893E
:1092A000401C0C49088100204880087300BF0DE075
:1092B00000EB8001084A12F8211009B9012200E0F0
:1092C000002204490A310A54411C88B20228EFDB0B
:1092D00070470000348500200C85002010B5084838
:1092E00000F036F840B900200549891E0870488012
:1092F000486041F61D5010BD00F072F8FBE7000019
:109300003685002070B50F48458805EB85000E496D
:1093100001EB8000C06878B904200A49087005EBA9
:109320008500094A02EB80000023012241680748BA
:1093300002F0E9FC044602E000F090F80446204602
:1093400070BD0000348500200C850020F4810020D1
:1093500010B501460022002018E00F4B1B5C9BB1AA
:1093600000240D4B1C5400EB80030C4C04EB8303D6
:10937000DB684BB900EB800304EB83031B7C012B00
:1093800002D10880012203E0431C98B20228E4DBEA
:1093900000BF104610BD00003E8500200C85002057
:1093A000F8B50C4844680C4800680B49898800EB04
:1093B00081056088C01C86B2032006490870002021
:1093C000B3000090084629464268044802F0D1FCE8
:1093D000F8BD000034850020CC800020F4810020FE
:1093E00010B507494888091D05F086F818B1FFF740
:1093F000D7FF044602E0FFF785FF0446204610BD74
:109400003485002010B514480078082820D2DFE801
:1094100000F0041F1F0A1016171BFFF73FFF012063
:109420000D49087015E000F075F802200A4908702F
:109430000FE000F029F806200749087009E000BF96
:1094400007200549087004E001200349087000E086
:1094500000BF00BF10BD00003485002010B50520FE
:109460000649087002200649888008460023012228
:109470000168044802F047FC10BD0000348500205C
:10948000CC800020F48100201049086810494988E8
:1094900001EB81010F4A02EB810149680B4A11601F
:1094A0000B49498801EB81010A4A02EB81014860BE
:1094B00006498988064A528802EB8202054B03EB73
:1094C000820211810221014A91807047CC800020E4
:1094D000348500200C85002010B506200549087051
:1094E000498801EB8101044A02EB8101486803F0DD
:1094F0009DFB10BD348500200C85002010B5072091
:10950000034908700020486003F0A0FB10BD000074
:1095100034850020054A50684288D21C91B2044A22
:1095200092880A44024B9A807047000034850020DC
:10953000CC8000202DE9F04186B00446A588208823
:1095400050282ED004DC352836D0362808D163E0E8
:10955000522802D05428F9D103E0284600F0FAFE40
:109560007BE01422444901A8FCF7AAFFADF806509D
:10957000284600F08BFBADF80800BDF8080000F0AD
:10958000EBF800223D4801782846FEF76BFC0022EC
:109590003B4801782846FEF765FC01A8FFF7E0FB91
:1095A0005BE0A01DFEF74CFE28B10121284600F02B
:1095B00011FF06F0A5F950E00027A58804F10A067E
:1095C000304801782846FEF737FC00B945E0002214
:1095D0002C4801782846FEF745FCE088B0F5857FE9
:1095E00014D0E08890B9708801280FD1B18800228A
:1095F0002846A1DF8046B8F1000F06D101270122DD
:10960000214801782846FEF72DFC00BF1FB9002134
:10961000284605F0C9FE20E00027A58804F10A06C7
:10962000194801782846FEF707FC00B915E000222A
:10963000154801782846FEF715FCE08840B9B08847
:10964000012805D1B07908B1012000E000200746CB
:109650003946284605F0A8FE00BF00BF00BF002223
:109660000A490B480078FEF787FB00BF05F0F6FBC0
:1096700006B0BDE8F0810000E412030087810020FD
:1096800086810020898100208A810020F7780200ED
:109690008581002010B50446207858B9608800F014
:1096A00059FE608805F0CAFB6088FEF793FD06F05E
:1096B00027F900E000BF00BF10BD00007CB50446E4
:1096C0002078082840D1607A00283DD1207A0128EE
:1096D00014D0072802D0082834D12BE0A08800F04D
:1096E00005FA05464FF6FF70854206D0012128464F
:1096F00000F070FE2846FEF76DFD24E0A0886A4663
:10970000012103F063FB06469EB90198007880B101
:10971000A08800F0EBF905464FF6FF70854207D0B0
:1097200001220B4801782846FEF79CFB05F096FBCA
:1097300000BF08E007480068012802D1054802F090
:10974000F8FB00E000BF00BF06F0DAF87CBD0000C7
:1097500086810020808100201CB50446044903C98D
:10976000CDE9000100226946204603F0A4FC1CBD9F
:10977000081303002DE9FC478146484600F086FAAD
:109780000546002600274FF003084FF0010A4FF668
:10979000FF7085420CD06A460821284603F016FB6C
:1097A00004462CB90198861D8788D0F8008000BF38
:1097B00000BF43463A4631464846B1DF0446042CD2
:1097C00001D1112415E0082C01D1002411E00B2C4B
:1097D0000FD14FF0000A08F0020010B14FF001085D
:1097E00007E006B927B1002600274FF0030800E084
:1097F00003240B2CDDD0BAF1000F00D10B2420463E
:10980000BDE8FC872DE9FC478046404600F03EFA63
:1098100006464FF6FF70864203D143F20200BDE8D0
:10982000FC874FF001094FF0000A00BF4FF0000A1B
:109830004A46511C1FFA81F96B460821304603F055
:10984000F9FA04460CBB019D032028602A1DA91DBE
:1098500040462B68B2DF044634B932460821304610
:1098600003F05EFB04460FE00C2C02D14FF0010A1E
:1098700002E0052C00D100240821304603F040FB13
:10988000074607B1032400BF02E0072C00D10C24D7
:10989000BAF1000FCAD100BF2046C0E710B5044698
:1098A000044800884FF6FF71884201D005F0E2FAC3
:1098B00010BD000092810020FEB5044602A8019070
:1098C000204600F0E3F906466A460121304603F0DF
:1098D0007DFA05460DB10020FEBD01980078FBE73A
:1098E00070B505464FF6FF760E48B3DF04460CB15F
:1098F000032070BD00BF4FF6FF720A48018828465A
:10990000AFDF044643F20300844204D105480088D7
:10991000401C0449088043F203008442EBD02046F7
:10992000E7E700009481002070B504460D4620460C
:1099300000F01DF8A84201D9022070BDA0884FF6A2
:10994000FF71884204D0208810B1A068401C08B97B
:109950000120F2E70020F0E7024613468B4204D2D2
:109960001868401C08B1012070470020FCE7014640
:109970004A8801F10C0000EB820070473EB50446B6
:109980000D4620780221B1EB500F01D000203EBDE2
:10999000B4F80100ADF80800E0788DF80A00A1885D
:1099A000ADF80010A0798DF8020001AA694628469A
:1099B000FDF720FE032201A902A8FCF7C8FD08B9A3
:1099C0000120E4E70020E2E770B504460D46142CC0
:1099D00003DA2046FEF75CFA10B943F2020070BDCC
:1099E00004EB8400054901EB4000D0F80210296027
:1099F000C188A980007AA8710020F0E7C8B60020CD
:109A000030B591B005462888102801D011B030BD7E
:109A10002C22291D06A8FCF753FD4FF6FF749DF874
:109A20001C000321B1EB500F35D003F0EFFA9DF885
:109A30001C00400820B1012803D0022828D114E0DE
:109A400000BF09E0049800F1110107A8FDF7AAFC86
:109A500010B1BDF8144006E003AA05A9072003F0E1
:109A60009FFA0028EED100BF13E008E00498411CE3
:109A700007A8FFF783FF10B1BDF8144006E003AA62
:109A800005A9072003F08CFA0028EFD100BF00E001
:109A900000BF00BF00BFBDF8180000EB80001249F6
:109AA00021F81040BDF8180000EB800001EB4000E9
:109AB0000799C0F80210BDF82010C1809DF822104F
:109AC00001724FF6FF7084420CD0BDF81800ADF85B
:109AD0000600ADF8084000208DF8040001A8FFF74B
:109AE00067F900BF00BF91E7C8B6002070B5054612
:109AF0004FF6FF70854200D170BD00240EE004EBEC
:109B00008400094931F81000A84205D12046FEF72B
:109B1000BFF908B12046EFE7601C84B2142CEEDBDD
:109B20004FF6FF70E8E70000C8B600203EB50546D6
:109B30000C4603F06BFA0BE0BDF80800A04207D01A
:109B40002846019900F00EF810B1BDF808003EBD9E
:109B50006A4602A9072003F023FA0028ECD14FF649
:109B6000FF70F4E72DE9F04704460D4604F11106B5
:109B700005F111071022691C601CFCF7E8FC48B9CC
:109B8000601C00F0DCFA28B1681C00F0D8FA08B1BB
:109B9000012000E00020824639463046FDF702FCF5
:109BA000804630780221B1EB500F10D0307803217D
:109BB000B1EB500F0BD038780221B1EB500F06D02B
:109BC00038780321B1EB500F01D0012000E00020D4
:109BD0008146B8F1000F02D0B9F1000F05D1BAF1FA
:109BE000000F05D0B9F1000F02D10120BDE8F087C8
:109BF0000020FBE70246108808B1012070470021D1
:109C000005E0901C405C08B10120F7E7491C0829D9
:109C1000F7D30020F2E770B505460C462846FFF75B
:109C2000E9FF08B9002070BD28882188884201D04A
:109C30000020F8E70822A11CA81CFCF788FC08B942
:109C40000120F0E70020EEE7142804DA00EB8002A0
:109C5000014B23F812107047C8B6002070B50646B5
:109C60003046FFF743FF0446304603F0BAF8054696
:109C700045B9142C06DA4FF6FF7004EB8401024A52
:109C800022F81100284670BDC8B6002010B5044661
:109C9000142C03DA2046FEF7FBF810B94FF6FF70DC
:109CA00010BD04EB8400024931F81000F8E7000011
:109CB000C8B600203EB5044603F0A8F910E00198AC
:109CC00000F146012046FFF7A6FF30B9019800F1E8
:109CD0002A012046FFF79FFF10B1BDF808003EBDE6
:109CE0006A4602A9072003F05BF90028E7D14FF686
:109CF000FF70F4E72DE9F04106460C4648F20E6786
:109D000036B10020434948604FF40640BDE8F08179
:109D1000207930B101280AD0022835D003286DD12E
:109D200040E00120207102F091FF074667E04FF00C
:109D30000008002519E005EB8500374911F82000DF
:109D4000022810D1002005EB8501334A02F82100DA
:109D50004FF0010805EB850102EB8101486802F034
:109D600065FF074603E0681C85B2022DE3DB00BFF8
:109D7000B8F1000F07D10120264908700020486083
:109D800041F61D50C2E73AE000202071022023492D
:109D900088800846002301220168214801F0B3FFB2
:109DA00007462CE0002020711C49086802F03EFFA5
:109DB00007461C4845881948D0F8008005EB850007
:109DC000154901EB800040681449086005EB8500E7
:109DD000114901EB8000C0F804801048808805EB31
:109DE00085010D4A02EB8101088102200B49888020
:109DF000002005EB850102F8210000E000BF00BF54
:109E00002FB100200349486048F20D607EE7002032
:109E10007CE70000B88000200C850020CC8000206A
:109E2000F481002034850020024600210CE001EB83
:109E30008100074B33F82000904204D101EB8100F0
:109E400003EB80007047491C0029F0D00020F9E79F
:109E50001CB600202DE9FC5F83460E4691461F4646
:109E6000DDE90C45002E01DA704200E03046824602
:109E70004FF0010803E09AFBF9FA08F10108CA451E
:109E8000F9DA474500D9B84634B1002E03DB05F0B6
:109E90000400042800D1641E05F0020000B167B17F
:109EA00005F0010048B944B104E0641E2021584681
:109EB000FEF77AF90CB1A045F7D3002E05DA764209
:109EC0002D215846FEF770F907E005F0040004283C
:109ED00003D12B215846FEF767F905F0020002284E
:109EE0000DD105F0010050B94FB944B104E0641E32
:109EF00030215846FEF758F90CB1A045F7D33B4640
:109F00004A4631465846CDE9004505F09DFCBDE87E
:109F1000FC9F70B505460C464FF48871284602F048
:109F200044F868B14FF48871284602F045F860792A
:109F300000F0040020B1206810B10120216888479A
:109F40004FF48A71284602F030F868B14FF48A71F4
:109F5000284602F031F8607900F0080020B120684E
:109F600010B10220216888474FF48E71284602F014
:109F70001CF868B14FF48E71284602F01DF8607924
:109F800000F0100020B9206810B100202168884737
:109F90004FF48271284602F008F858B14FF48271EC
:109FA000284602F009F801202071206810B1032032
:109FB0002168884770BD00002DE9F04781460C46B6
:109FC00016464FF480374FF4A078002520E039463C
:109FD000484602F04EF9A8B14146484602F03DF924
:109FE00080B13946484602F035F93946484602F014
:109FF00037F94146484602F01FF9E8B21B4A52F8C9
:10A00000241088477F0008F104001FFA80F86D1CB7
:10A01000B542DCD34FF480780121484602F029F99B
:10A0200068B14146484602F018F940B141464846F9
:10A0300002F002F90D4850F82410042088474FF42C
:10A0400082780221484602F014F968B14146484638
:10A0500002F003F940B14146484602F0EDF80348EA
:10A0600050F8241005208847BDE8F087A080002024
:10A070002DE9F04704460E469046002722E0384678
:10A0800002F0B1FA0546384602F0B4FA814620469D
:10A09000294642580AB1012200E0002282B1484616
:10A0A000D4F80413014009B1012100E0002139B1C5
:10A0B0002946204602F0A3FA2846D6E90021904717
:10A0C000781CC7B24745DADBBDE8F0872DE9F041DF
:10A0D0000446A08800EB020CB4F80480904501DD32
:10A0E000104600E0A088A8EB0005E088C618B4F888
:10A0F0000680984501DD184600E0E088A8EB0007DF
:10A100004888B4F80080404504DB4888B4F80280F1
:10A11000404502DD0020BDE8F0818888A84202D3D6
:10A120008888604501D90020F5E7C888B84202D385
:10A13000C888B04201D90020EDE70120EBE70246D4
:10A14000002104E0505C08B101207047491C10292F
:10A15000F8D30020F9E7014691F84000C0F3C100B0
:10A16000012805D091F84000C0F3C100032801D1B7
:10A17000012070470020FCE7014601F0030008B908
:10A18000012070470020FCE70146086808B102681A
:10A190000A607047026803E08A4200D17047126883
:10A1A000002AF9D103680BB1036800E000230B60BB
:10A1B000016000BFF2E77CB504466A4607212046ED
:10A1C00002F004FE05463DB9019890F8440000F005
:10A1D000010008B101207CBD0020FCE710B502F0B1
:10A1E0008DFA00200149887010BD0000BC8200205B
:10A1F0002DE9FE4F81460F46924698460FB1002644
:10A2000012E0684600F006FB6A460021484602F06C
:10A2100085FD009E2248007828B99DF8090010B9F4
:10A220000520BDE8FE8F00BF52463146484604F087
:10A23000F4FF0446002221464846FEF721FF0D2C7C
:10A240001CD005DCCCB1082C1AD00B2C1BD118E08B
:10A25000112C04D0A4F540500238A0B90FE03A46C2
:10A26000104801784846FDF7FDFD52460E4801783A
:10A270004846FDF7F7FD002507E000BF00BF00BF1F
:10A2800000BF254601E0032500BF00BFB8F1000F65
:10A2900004D0324621464846FEF730FD2846C0E746
:10A2A000CC810020D6810020D581002070B50546E4
:10A2B0000E46314628467EDF0446042C00D1112488
:10A2C000204670BD70B504460D46164600BF0B48CB
:10A2D00001782046FDF7B0FD70B1204602F0C8FCC1
:10A2E00028B132462946204602F0CCFC04E0324632
:10A2F00029462046FEF748FB70BD0000BC810020C7
:10A300002DE9F041044688460A4801782046FDF7C9
:10A3100093FD0646084801782046FDF78DFD074667
:10A320000123324639462046FFF762FF0546BDE865
:10A33000F0810000D5810020D681002070B505464F
:10A340000C46002624B121462846FFF7AFFF0646FB
:10A35000304670BD70B586B005460026142101A8B0
:10A36000FCF7D5F8ADF806504FF6FF70854201D1E5
:10A3700006B070BD2846FFF7FDF9044644B10B2C2A
:10A380000FD0112C0BD0A4F54050023888B90FE043
:10A390000E208DF8040001A8FEF7E2FC0EE0012675
:10A3A0000CE00F208DF8040001A8FEF7D9FC05E0B1
:10A3B00004E02146284604F0BBFC00BF00BF324643
:10A3C000034801782846FDF74DFD00BFD0E70000A7
:10A3D0008581002070B505460C462246024801786A
:10A3E0002846FDF73FFD70BD84810020F0B585B0A3
:10A3F0000446002600272046FFF704FA054645B12B
:10A40000112D09D0862D09D0A5F54050023880B90C
:10A4100001E0012712E011E001260FE014220B49B0
:10A420006846FCF74DF8ADF802406846FEF798FC28
:10A4300004E02946204604F07BFC00BF00BF314603
:10A440002046FFF7C7FF384605B0F0BDA012030055
:10A450001CB501F055FA002001F0C0FA044600BF17
:10A46000254625B100BF2846FDF728F900BF00BFEB
:10A470001648006840F004001449086000211120CB
:10A4800001F0C5FC0021122001F0C1FC104802219E
:10A4900000234FF48272CDE900100EA10F4806F0A0
:10A4A000DFFA00220C210A2006F0B0F80C490860FF
:10A4B000FDF737FEFDF72EF804F044F900210948B6
:10A4C00002F006F805F050FD00BFFEE710ED00E0D9
:10A4D000088000204D41494E00000000E9A4020020
:10A4E00004800020CD7502004FE0112001F0BFFC78
:10A4F00008B9012000E0002024490860122001F082
:10A50000B6FC08B9012000E000202149086021487C
:10A5100000681E490968884205D11F4800681C4927
:10A52000096888422ED01D48007874DF044600BFB9
:10A53000254625B100BF2846FDF7C0F800BF00BF83
:10A5400000201749C8751148006820B10846C07D31
:10A5500040F00100C8750E48006828B11048C07D61
:10A5600040F010000E49C875FCF7D4FF074800689A
:10A570000849086006480068074908600020FDF7A0
:10A5800025F800BF642005F043FCAEE744800020BE
:10A59000488000203C800020408000201080002067
:10A5A000248000202DE9F04105460E4614469846C9
:10A5B000A888871C2088801C3844404502D90C207C
:10A5C000BDE8F081FE2F01D90C20F9E7781C218825
:10A5D00070542088401C2080FF20218870542088DF
:10A5E000401C208022889119288805F0C9F821880C
:10A5F00008442080A88800280DDDA86808B9072035
:10A60000DEE7AA8823889819A968FBF759FF2088F4
:10A61000A988084420800020D2E72DE9FF4F87B0A9
:10A62000044691461E46A2462546BAF806009AF808
:10A6300005104843001F0690BAF806B0301DB0FB65
:10A64000FBF00590301DB0FBFBF10BFB11000490FB
:10A65000D9F8000081190698814202D90698801B1A
:10A6600001E0D9F800000746C9F8007003E02D6842
:10A670000598401E059005980028F8D1039004988D
:10A68000ABEB0008B84501D9384600E040468046AB
:10A6900023E00399089808440290281D049908446F
:10A6A0000190149828B14246DDE90110FBF708FF3C
:10A6B00004E04246DDE90101FBF702FF00200490BF
:10A6C0002D68A7EB0807039840440390BB4501D9C8
:10A6D000384600E05846804600BF002FD9D10BB065
:10A6E000BDE8F08F70B504460D462946204600F0BF
:10A6F0001BF980F0010600BF00BF00BFBFF35F8FF2
:10A7000000BF00BF00BF304670BD70B504460D46A7
:10A7100000BF00BF00BFBFF35F8F00BF00BF00BF1F
:10A720002946204600F047F970BD70B504460D4635
:10A7300000BF00BF00BFBFF35F8F00BF00BF00BFFF
:10A740002946204600F0E1F870BD2DE9F84F054696
:10A750000F46144698462878012804D1687810B925
:10A760000720BDE8F88F2088801C404508D828784D
:10A77000012807D12088801C69780844404501D908
:10A780000C20EEE72088A8EB0000801E86B2009621
:10A790002188891CC81969467DDF814600BF48466B
:10A7A00000B1DEE700BF2878022804D06878BDF841
:10A7B0000010884206DBBDF80000B04202DC4FF01A
:10A7C000090A0BE04FF0080A2878012805D16878BB
:10A7D000B04202DC6878009000E00096BDF800000E
:10A7E000FE2801D90C20BCE7BDF80000401C2188E0
:10A7F00078542088401C2080208807F800A02088FA
:10A80000401C20802088BDF80010084420800020D3
:10A81000A7E700000EB500210091019102910449C3
:10A82000096800919DE80E0080E80E000EBD000052
:10A83000C881002070B586B006460D461446142126
:10A8400001A8FBF764FE8DF80450ADF806402046E1
:10A85000FFF71CFAADF80800142201A93046FBF7F7
:10A860002FFE06B070BD70B505460E464FF6FF7060
:10A87000854201D1002000E0681C84B208E0214636
:10A88000304600F098F808B1204670BD601C84B2D4
:10A89000FF2CF4DD4FF6FF70F7E770B504460D4668
:10A8A00029462046FBF7D0FC18B12A882168881871
:10A8B00070BD0020FCE770B505460C462088618815
:10A8C000884204D12846FBF701FD012070BD00201D
:10A8D000FCE770B504460D4629462046FBF7D9FC37
:10A8E00018B16A882168881870BD0020FCE770B52F
:10A8F00005460C4620886188884204D12846FBF72B
:10A90000BFFC012070BD0020FCE770B505460C4679
:10A9100004F01F0301229A40D143620905EB820033
:10A9200000F072F8064670BD70B505460C4604F09E
:10A930001F03012202FA03F1620905EB820000F015
:10A9400079F804F01F0201219140084008B101206C
:10A9500070BD0020FCE72DE9F04106460D460024BD
:10A9600021E056F82400C04390FAA0F0B0FA80F835
:10A9700014E008EB4417AF4200D312E039463046EA
:10A98000FFF7D2FF10B93846BDE8F08156F8240031
:10A99000C04390FAA0F0B0FA80F800BFB8F1200FE1
:10A9A000E7D300BF641C681E012101EB5010A042D8
:10A9B000D7D82846E8E710B50246480952F82000E3
:10A9C00001F01F040123A340184008B1012010BD6D
:10A9D0000020FCE770B505460C4604F01F03012279
:10A9E00002FA03F1620905EB820000F039F806462D
:10A9F00070BDF8B504460D466A4629462046FBF769
:10AA0000BAFC06460098F8BDF8B504460D466A46FD
:10AA100029462046FBF795FC06460098F8BDF8B598
:10AA200004460D466A4629462046FBF7A4FC064626
:10AA30003046F8BDF8B504460D466A46294620461C
:10AA4000FBF772FC06463046F8BDF8B504460D46E5
:10AA50006A4629462046FBF75BFC06463046F8BDB1
:10AA6000F8B504460D466A4629462046FBF75CFCCD
:10AA700006460098F8BDF8B504460D466A462946D4
:10AA80002046FBF785FC06460098F8BD2DE9F04FFF
:10AA90008DB00746884600BFB868D0F84801C0F3BB
:10AAA000400038B100221146384600F06FFD0DB06D
:10AAB000BDE8F08FB8F1010F05D926A20221384672
:10AAC00000F034FDF3E728482849401A1821B0FB6C
:10AAD000F1F900253AE005EB4500244901EBC004FB
:10AAE000B4F814A0A08AA0EB0A000C90D4E90110DD
:10AAF000461A00BF20680079834600BF207A21688B
:10AB00000978401AC0B20B9020690A9064201BFBA0
:10AB100000F0B0FBF6F0099064210B9810FB01F0F7
:10AB2000B0FBF6F008900998CDE90460CDE906B6CF
:10AB3000DDE90B020899CDE900A2CDE902100C4A2B
:10AB4000082138460A9B00F0F1FC6D1C4D45C2D32C
:10AB500000BFACE742616420617267756D656E7419
:10AB600020636F756E74000000000000000000009C
:10AB70004414030030B502460B46D40802F0070225
:10AB8000012090401D5D284030BD30B50B46C20805
:10AB900000F007009C5C012585402C439C5430BD8F
:10ABA0002DE9F04786B004460E46B71C04F1400874
:10ABB00004F1360994F83EA094F8340010B906B0B8
:10ABC000BDE8F08700F0CFF9142101A8FBF79FFC46
:10ABD00053464A46414638468CDF054606208DF8E6
:10ABE0000400029525B1206D10B101A8216D8847A0
:10ABF00000BFE4E74FF4C87282870621C18618229D
:10AC0000028700224287704790F8401021F004012B
:10AC1000091D80F84010A02242210A5250224421EE
:10AC20000A52002246210A5290F8401021F01801E1
:10AC300080F84010012241210A54704770B5044643
:10AC40000D46164600BF0CB90E2070BD00BF26652C
:10AC500034212046FBF75BFCFDB1287984F83400F1
:10AC6000287B84F83E00286830B10E2204F14000B1
:10AC70002968FBF725FC02E02046FFF7C5FFA8681E
:10AC800038B1A8680168C4F836104068C4F83A00C2
:10AC90000CE02046FFF7AEFF08E02046FFF7B4FFC8
:10ACA0002046FFF7A7FF002084F8340004F1540089
:10ACB00060671F21782001530020C6E72DE9F04F7F
:10ACC00087B004460D4600260027142102A8FBF792
:10ACD0001EFC04F1400006902046FFF73CFA88B1C4
:10ACE00002208DF80800039502A8216D884704F121
:10ACF000740100208ADF29462046FFF751FF07B084
:10AD0000BDE8F08F94F832804FF0000994F82AA043
:10AD100094F821B03120005D0190BAF1000F11D0FC
:10AD2000701CC6B221462846FCF78CFB50B1781C3B
:10AD3000C7B29DF8100020F00200801C8DF81000B2
:10AD40004FF00109BBF1000F11D0701CC6B22146B3
:10AD50002846FCF792FB50B1781CC7B29DF8100052
:10AD600020F00100401C8DF810004FF001090198FF
:10AD700088B1701CC6B221462846FCF799FB50B139
:10AD8000781CC7B29DF8100020F00400001D8DF85B
:10AD900010004FF001090395B8F1000F09D0B74238
:10ADA00007D100208DF8080029462046FFF7F8FE5D
:10ADB00011E0B8F1000F0AD1B9F1000F07D000205F
:10ADC0008DF8080029462046FFF7EAFE03E003203D
:10ADD0008DF808000395206D10B102A8216D8847F9
:10ADE00004F1740100208ADF00BF88E72DE9F041FB
:10ADF00004460D462E4604F1080704F10408208895
:10AE0000102815D01B2809D01D2802D0202814D1C5
:10AE100009E039463046FFF751FF0FE04146304622
:10AE200000F046F80AE04146304600F024F805E01C
:10AE30004146304600F005F800E000BF00BFBDE825
:10AE4000F08130B585B004460D4614216846FBF705
:10AE50005EFB07208DF80000281D01902988ADF8C1
:10AE6000081004F140000490206D10B16846216D77
:10AE7000884705B030BD70B586B004460D462E1D1E
:10AE8000142101A8FBF743FB206D78B105208DF854
:10AE9000040004F14000059030680290706803904F
:10AEA000307A8DF8100001A8216D884706B070BD7A
:10AEB00070B586B004460D462E1D142101A8FBF77F
:10AEC00026FB307801280DD1206D58B104208DF873
:10AED000040004F14000059030788DF8080001A8C6
:10AEE000216D884706B070BD70B504460D4600BFA1
:10AEF0000CB90E2070BD00BF00F035F835B10E2240
:10AF0000294604F14000FBF7DBFA02E02046FFF798
:10AF10007BFE0020EEE730B585B0044600BF14B9D3
:10AF20000E2005B030BD00BF14216846FBF7EFFAD4
:10AF300000F019F82046FFF70EF938B1206D28B15E
:10AF400001208DF800006846216D884704F17401E6
:10AF500004F140008ADF0546082D02D00DB12846D5
:10AF6000DFE70020DDE78BDF704700002DE9F041CF
:10AF700004460D4616461F46204600F097FC38B1A1
:10AF80003A463146204600F001FB0120BDE8F08141
:10AF900045B1A06804A202214368204600F0C6FA29
:10AFA0000120F3E70020F1E725733A2077726F6EF6
:10AFB0006720706172616D6574657220636F756E74
:10AFC000740A000070B504460D461646022D09D1DC
:10AFD000204600F06BFC28B100221146204600F00C
:10AFE000D5FA70BD054A06A1206900F071FD054A39
:10AFF00003A1206900F06CFD00BFF2E753110300CC
:10B00000257300005711030070B505460C4616461F
:10B01000012C05D0022C09D1284600F047FC28B1AC
:10B0200000221146284600F0B1FA70BD03A20221A9
:10B03000284600F07BFA00BFF7E70000506C65611E
:10B04000736520737065636966792061207375622A
:10B05000636F6D6D616E642E0A0000007CB506465C
:10B060000C461546012C05D100221146304600F051
:10B070008DFA7CBD022C0AD10BA16868CDE90010C5
:10B080000FA2022130462B6800F050FAF1E7022CA3
:10B0900001D9012000E00020014600231A46304675
:10B0A000FFF764FF00BFE4E720756E6B6E6F776E8D
:10B0B00020706172616D657465723A200000000055
:10B0C00025733A257325730A0000000070B5044605
:10B0D0000D461646012D01D0012000E0002001465A
:10B0E00000231A462046FFF741FF00B170BD002043
:10B0F000A168C1F83801E1684968086800F08CFF70
:10B1000000BFF3E72DE9FE4305460F469146012FA8
:10B1100001D0012000E00020014600231A46284605
:10B12000FFF724FF08B1BDE8FE83E86840680468C3
:10B13000204600F06DFFC6B2642016FB00F0A16847
:10B14000B0FBF1F000F0FF08A068CDE900860290A6
:10B15000A86804A20021D0F83831284600F0E6F9AA
:10B1600000BFE0E74C6F7374206C6F67733A202563
:10B17000750A4D6178206C6F672071756575652063
:10B180007574696C697A6174696F6E3A20257525EA
:10B1900025205B25752F25755D0A00007CB50646C8
:10B1A0000C461546012C05D100221146304600F010
:10B1B000EDF97CBD022C01D0012000E00020014609
:10B1C00000231A463046FFF7D1FE00B1F1E706A191
:10B1D0006868CDE900100AA2022130462B6800F011
:10B1E000A5F900BFE5E7000020756E6B6E6F776E06
:10B1F00020706172616D657465723A200000000014
:10B2000025733A257325730A0000000070B50446C3
:10B210000D461646012D01D0012000E00020014618
:10B2200000231A462046FFF7A1FE00B170BDA068BA
:10B23000D0F8480120F00400A168C1F8480100BF1F
:10B24000F4E770B504460D461646012D01D00120E5
:10B2500000E00020014600231A462046FFF786FE44
:10B2600000B170BDA068D0F8480120F00400001DB6
:10B27000A168C1F8480100BFF3E700002DE9FC41D7
:10B2800006460C461546022C01D9012000E000209C
:10B29000014600231A463046FFF768FE08B1BDE8B4
:10B2A000FC81022C0AD10DA16868CDE9001011A221
:10B2B000022130462B6800F039F9F0E73046FDF7FF
:10B2C00003F808B10EA000E00EA007463B460EA210
:10B2D0000021304600F02AF900BFE0E720756E6BD0
:10B2E0006E6F776E20706172616D657465723A2061
:10B2F0000000000025733A257325730A0000000042
:10B300006F6E00006F6666004563686F207374613E
:10B310007475733A2025730A0000000070B5044666
:10B320000D461646012D01D0012000E00020014607
:10B3300000231A462046FFF719FE00B170BD00BF7A
:10B34000A068D0F8480120F00800A168C1F84801C1
:10B3500000BF00BFF2E770B504460D461646012D4A
:10B3600001D0012000E00020014600231A462046BB
:10B37000FFF7FCFD00B170BD00BFA068D0F8480128
:10B3800020F008000830A168C1F8480100BF00BFE4
:10B39000F1E700002DE9FF4104460F469046012FDA
:10B3A00001D0012000E00020014600231A4620467B
:10B3B000FFF7DCFD08B1BDE8FF810025A068D0F8EB
:10B3C00040611EE00EB1082D00D31BE000230922CE
:10B3D00001A9304600F09CFD9DF80C00421CA068BD
:10B3E00000F1A0010923304600F092FD029EA06802
:10B3F000A0302B466D1C07A200210090204600F0D3
:10B4000095F8DFE700BF0020A16881F8A00000BF29
:10B41000D1E700005B2533645D2025730A0000003E
:10B420007CB504460D461646012D13D1A06800F1E7
:10B430001802511C204604F047F950B15021A06871
:10B4400041761821A06801760FA20421204600F061
:10B450006DF87CBD022D01D9012000E000200146DD
:10B4600000231A462046FFF781FD00B1F1E715A140
:10B470007068CDE9001019A202212046336800F05F
:10B4800055F800BFE5E700004E6F20726573706FDE
:10B490006E73652066726F6D2074686520746572C6
:10B4A0006D696E616C2C20617373756D65642038F5
:10B4B000307832342073637265656E2073697A6503
:10B4C0000A00000020756E6B6E6F776E20706172DF
:10B4D000616D657465723A200000000025733A259D
:10B4E0007325730A0000000070B504460D46164629
:10B4F000012D01D0012000E00020014600231A4662
:10B500002046FFF733FD00B170BD064A06A1206951
:10B5100000F0DEFA5021A06841761821A06801767B
:10B5200000BFF1E75C110300257300000FB47CB588
:10B5300004460D460020019009A80190A068D0F8AB
:10B540004801C0F38000B8B1A068C07EA84213D003
:10B550006846A168B1F81B10018000BF294620464B
:10B5600004F094FD01AA2069089900F0D4FA694614
:10B57000204604F0B7FD04E001AA2069089900F014
:10B58000CAFA002001907CBC5DF814FB2DE9F04F55
:10B5900089B007460C4691464FF00008AD48FCF7CD
:10B5A000B8FE0546AC48FCF7B4FE281A86B2AB4894
:10B5B0000090B868AAA2082143683846FFF7B6FF92
:10B5C000B9684868FCF7A5FE0546A448FCF7A1FE4B
:10B5D00028441FFA80F8B86800234246816838463C
:10B5E000FDF78DFDA0A200213846FFF79FFFB9F1BE
:10B5F000000F26D02CB3002521E005EB450104EB1C
:10B6000081014868FCF785FE834605EB450154F847
:10B610002100FCF77EFE5844B0420FD905EB4501EE
:10B6200004EB81014868FCF774FE834605EB450195
:10B6300054F82100FCF76DFE584486B26D1C4D4550
:10B64000DBD38548FCF765FE801C304486B2814818
:10B65000334688A2082100903846FFF767FFF01CA8
:10B660001FFA80F80023424684A13846FDF747FDC3
:10B67000002C7DD0002586E005EB450004EB800022
:10B680004068E0B305EB450054F82000B8B305EB83
:10B69000450054F820007049CDE9001005EB450045
:10B6A00004EB80007AA2082143683846FFF73EFF8A
:10B6B000B01C1FFA80F805EB450104EB81014868D6
:10B6C000FCF727FE834605EB450154F82100FCF703
:10B6D00020FE83440BF1020B5F48FCF71AFE58442E
:10B6E000A8EB0000C0B2014602903846FDF7AEF864
:10B6F0003A213846FCF7F0FD08F1010000E002E0D5
:10B700001FFA80F828E005EB450004EB8000406854
:10B7100078B105EB450004EB80004068334655A244
:10B72000082100903846FFF701FFF01C1FFA80F84F
:10B7300012E005EB450054F8200068B105EB450028
:10B7400054F8200033464BA2082100903846FFF7FA
:10B75000EDFEF01C1FFA80F805EB450004EB8000BD
:10B76000806860B105EB450004EB8000002300E039
:10B770000CE0424681683846FDF7C1FC02E03846DD
:10B78000FCF7A2FF6D1C4D45FFF476AFB868C068AA
:10B7900010B909B0BDE8F08FB868C0680490002007
:10B7A000039080460026824617E005A852460AF11B
:10B7B000010A03AB012100900498FCF715FE0398E1
:10B7C00000B90BE003990868FCF7A3FDB04204D967
:10B7D00003990868FCF79DFD86B2E6E700BFBAF161
:10B7E000010F00D1D5E72DA200213846FFF79EFEBC
:10B7F0004FF0000A2AE005A852460AF1010A03ABFD
:10B80000012100900498FCF7EFFD039800B91EE0B9
:10B81000B01C1FFA80F803980068434615A208215F
:10B8200000903846FFF782FE08F103001FFA80F807
:10B830000398406838B1039800234246416838466F
:10B84000FDF75DFC02E03846FCF73EFFD3E700BFA2
:10B8500000BF9EE744110300411103004F11030094
:10B8600025732573000000004F7074696F6E733A82
:10B870000A0000002020252D2A733A0053686F77B4
:10B8800020636F6D6D616E642068656C702E0000C2
:10B890002020257325732573000000005375626313
:10B8A0006F6D6D616E64733A0A000000014688682E
:10B8B000D0F84801C0F34000704701464FF0804087
:10B8C000405808B1012070470020FCE708B500226D
:10B8D0004FF080410A500958009100BF08BD000098
:10B8E00001490860704700000803004001490860F2
:10B8F0007047000004030040012291070A5070477E
:10B9000010B500240C48007808B1852411E000200F
:10B910000949886048600861C860084800F0A4FED2
:10B92000044600F0F5FD08B900F090FE0120024940
:10B930000870204610BD0000BC820020C1830200B8
:10B9400008B5002000906846FBF782FF0748C068F2
:10B95000401E0649C8600846C06808B9FEF73EFCAC
:10B960009DF80000FBF77AFF08BD0000BC820020B4
:10B9700038B504461848807890B114B10120616848
:10B980008847002000906846FBF762FF1248C068B5
:10B99000401C1149C8609DF80000FBF75FFF19E0EB
:10B9A000002000906846FBF753FF24B121460A4867
:10B9B0001030FEF7EFFB0848C06808B900F090FEB1
:10B9C0000548C068401C0449C8609DF80000FBF7AA
:10B9D00045FF00BF38BD0000BC82002070B50546A1
:10B9E0000A48007808B1852070BD00F091FD08B1CB
:10B9F0000820F9E705B9064D284600F03BFF04464C
:10BA000014B90120014908702046EDE74C80002060
:10BA1000E20E030070B500220623104619460028E6
:10BA200007DA4C07260E104C00F00F052D1F665547
:10BA300003E04C07250E0D4C255400BF00BF00202D
:10BA400000BF012181404209920002F1E022C2F8C8
:10BA5000001100BF00BF00F055FF20B104200449D1
:10BA6000086000BF00BF70BD18ED00E000E400E01A
:10BA70000403004038B5002000906846FBF7E8FE5C
:10BA800000F040FF18B1012036DF044600BF9DF8EA
:10BA90000000FBF7E3FE38BD70B504460E46012CEE
:10BAA00004D100F02FFF0546A84700BF70BD70B558
:10BAB00004460D46012C02D0032C06D102E0FFF70C
:10BAC000D9FF03E0FFF7A6FF00E000BF00BF70BD95
:10BAD0000FB438B50446059810B938BC5DF814FBAE
